:100000006F002040000000004A0100004E01000087
:1000100000000000000000000000000000000000E0
:1000200000000000000000000000000000000000D0
:10003000D003000000000000D20300000000000018
:10004000D4030000D6030000D8030000DA03000048
:10005000DC030000DE030000E0030000E203000018
:10006000E4030000E6030000E8030000EA030000E8
:10007000EC030000EE030000F0030000F2030000B8
:10008000F4030000F6030000F8030000FA03000088
:10009000FC030000FE03000000040000000000005C
:1000A000511126C022C206C4828282441244A24058
:1000B000310182802A86014593F6150091C232955E
:1000C00085810606F5F9828000000000634E050276
:1000D00063C305042E86AA857D5515C285466378BF
:1000E000B6006356C00006068606E36CB6FE014500
:1000F00063E4C500918D558D85820582F5FA828075
:100100008682C93F2E8582823305A04063D70500D1
:10011000B305B040C1B7B305B0408682653F330533
:10012000A0408282868263C70500634905005D376F
:100130002E858282B305B040E35B05FE3305A04007
:10014000513F3305B040828200007300203001A08F
:10015000EFF21FF50565111185451305058002C0F5
:1001600002C22314010002C602C802CA02CCD52E64
:100170009307F002373401403EC095679387F7E15B
:100180008A85130504C07C82E52E9307C05DFC813F
:10019000C167938707066C00130504C03EC6231C85
:1001A0000100231A01002521130504C085454D21B6
:1001B0008545130504C049217101C5BDEFF25FEE0D
:1001C000511185451305000202C002C202C4512E1E
:1001D00091477C8037150140E1473EC48A858D47B1
:1001E000130505403EC2712C3101C1B5EFF25FEB42
:1001F0000945856495269384C48FE528B92A893FEB
:10020000753F3734014093054038130504C0A129D8
:100210001305803EBD2A9305C05D130504C0A121CE
:100220001305803EBD22130504C0A6852D291305A4
:10023000803E8522F9B7B71702409843B706FFFC06
:100240001367170098C3D843758FD8C39843B70670
:10025000F7FEFD16758F98C39843B706FCFFFD1691
:10026000758F98C3D843C176FD16758FD8C33707ED
:100270009F0098C7984F1367070298CF3717014020
:1002800003260740930507401376F6F02320C74066
:1002900003260740136606082320C740094798C96C
:1002A000372702401043719A10C31043136616009B
:1002B00010C3D843D8C3D843F98ED4C3D843B706A4
:1002C0000001D8C39843558F98C39843931667008D
:1002D000E3DD06FED843B7160240719BD8C3D8436E
:1002E00013672700D8C32147DC42B18BE39EE7FEAA
:1002F0008280EFF2FFDA371702405C4337040020B8
:100300009146B18B130404016385D700A146638035
:10031000D704B7376E01938707601CC0B716024039
:10032000DC420840918313F7F700B707002093875A
:100330000700BA978C23DC4293F5F50F93F7070873
:100340003357B50099E379332A8718C0B9BB5C43AA
:10035000B777DC02938707C0C9B7EFF27FD4B7073E
:10036000002003A50701B7157A00938505209D336A
:100370001375F50FB7070020238DA70093175500BD
:10038000898F8A073E950E05B7070020239CA7009A
:1003900029BBEFF2FFD037F400E05C40AA85F99B5F
:1003A0005CC0B707002003D58701293308C8232480
:1003B00004001C4093E717001CC0B7F700E0D843C7
:1003C000058B75DF9843799B98C3C5B101A001A047
:1003D00001A001A001A001A001A001A001A001A015
:1003E00001A001A001A001A001A001A001A001A005
:1003F00001A001A001A001A001A001A001A001A0F5
:1004000001A09701002093816141138181FE1305B2
:10041000C066970500209385E5BE170600201306E9
:10042000E6BF63FAC5008322050023A0550011052D
:100430009105E3EAC5FE17050020130525BE938547
:1004400081806377B500232005001105E36DB5FEBB
:1004500093020008739002308D427390428097029D
:100460000000938222BA93E2320073905230EFF090
:100470009FDC970200009382A2D77390123473001E
:1004800020309C45611122C226C013F7070113F3E7
:10049000F70001C7D8413363E30092211377F60FC9
:1004A00029C78323050001471304800293048004B5
:1004B0008546B395E600B376B6006392D5029312F3
:1004C0002700BD46B396560093C6F6FFB3F37600F9
:1004D000B3125300B3E37200639787064CC9050754
:1004E000A146E317D7FC232075001307F00F6378AC
:1004F000C70483234500A1461304800293048004AB
:100500000547B312D700337756006394E20213977E
:1005100026000117BD45B395E50093C5F5FFB3F37C
:1005200075003317E300B363770063928702232AD1
:10053000550085064147E395E6FC232275001244E9
:10054000824421018280E39C97F80CC949BFE39261
:1005500097FE23285500F1BFB707002023AEA70060
:10056000828099C5371702401C4F5D8D08CF82806D
:10057000B7170240984F1345F5FF798D88CF8280D9
:100580001E2137370140130707C0C207C183630626
:10059000E500370700406316E500BA2193F7F7F846
:1005A000D98FFA2193F7F7CFC207C183D98F1EA144
:1005B000DE215EB59E211EB5B7370140938707C087
:1005C0006314F5009C251EB985475EA982801E3103
:1005D000922103D32500C207C183F99BC207C183BF
:1005E0001EB11E3156211A2DC207C1834207418315
:1005F0001377C7F8518F9225F59BC20633666600C4
:10060000D18F37360140130606C0C1826310C50280
:10061000B225DD9B03D3E500D18FD221ED9B93F66C
:10062000F6CFD18FD22533666600D18E56A11AAD92
:10063000FA2158D91EB182801E2189C593E717007F
:100640001EA18280C207C183F99BC207C183CDBFAF
:100650008357450491C52167D98F2312F504828001
:0C066000C607C583DDBF4CD982800000B6
:10066C000102030405060708010203040506070836
:08067C00006CDC02000000002C
:00000001FF
